{
  "contractName": "Time",
  "abi": [
    {
      "anonymous": false,
      "inputs": [
        {
          "indexed": false,
          "internalType": "bool",
          "name": "res",
          "type": "bool"
        }
      ],
      "name": "timeMatch",
      "type": "event"
    },
    {
      "constant": true,
      "inputs": [],
      "name": "currentTime",
      "outputs": [
        {
          "internalType": "uint256",
          "name": "",
          "type": "uint256"
        }
      ],
      "payable": false,
      "stateMutability": "view",
      "type": "function"
    },
    {
      "constant": false,
      "inputs": [],
      "name": "getTime",
      "outputs": [
        {
          "internalType": "bool",
          "name": "",
          "type": "bool"
        }
      ],
      "payable": false,
      "stateMutability": "nonpayable",
      "type": "function"
    }
  ],
  "bytecode": "0x608060405234801561001057600080fd5b5061014d806100206000396000f3fe608060405234801561001057600080fd5b50600436106100365760003560e01c8063557ed1ba1461003b578063d18e81b31461005d575b600080fd5b61004361007b565b604051808215151515815260200191505060405180910390f35b610065610112565b6040518082815260200191505060405180910390f35b600042600081905550620151806000548161009257fe5b0460018190555062015180600154026000540360028190555061384060025414806100c0575061e100600254145b1561010a577f656be200cd63cac968a15a9df16a19ac5dddd9ad0c70f9db7fd7d3c829561f866001604051808215151515815260200191505060405180910390a16001905061010f565b600090505b90565b6000548156fea265627a7a72315820128095dc2e370dd3cbe3c03b42b877ed0eceeace721d859a9c1a1cc2f3edc24364736f6c63430005100032",
  "source": "pragma solidity ^0.5.16;\r\n\r\n// SPDX-License-Identifier: MIT\r\n\r\ncontract Time{\r\n\r\n    uint256 public currentTime;\r\n    uint256 temp1;\r\n    uint256 temp2;\r\n\r\n    event timeMatch(bool res);\r\n\r\n    function getTime () public returns(bool) {\r\n\r\n        currentTime = now;\r\n\r\n        //  14400 = 3600 *4 for 4AM\r\n        //  57600 = 3600 *16 for  4PM\r\n        temp1 = currentTime/86400;\r\n        temp2 = currentTime - (temp1*86400);\r\n\r\n        if (temp2 == 14400 || temp2 == 57600){\r\n            emit timeMatch(true);\r\n            return true;\r\n        }\r\n        else\r\n            return false;\r\n    }\r\n\r\n}\r\n",
  "sourcePath": "C:\\Users\\Utkarsh\\Downloads\\temp\\contracts\\Time.sol",
  "compiler": {
    "name": "solc",
    "version": "0.5.16+commit.9c3226ce.Emscripten.clang"
  },
  "schemaVersion": "3.2.0",
  "updatedAt": "2020-06-23T17:20:00.534Z",
  "devdoc": {
    "methods": {}
  },
  "userdoc": {
    "methods": {}
  }
}